:100000000C945E000C9486000C9486000C94860080
:100010000C9486000C9486000C9486000C94860048
:100020000C9486000C9486000C9486000C94860038
:100030000C9486000C9486000C9486000C94860028
:100040000C947B090C9486000C9449090C942309A8
:100050000C9486000C9486000C9486000C94860008
:100060000C9486000C948600000000080002010039
:100070000003040700000000000000000000000072
:10008000250028002B0000000000240027002A0083
:10009000040404040404040402020202020203032E
:1000A0000303030301020408102040800102040836
:1000B0001020010204081020C509840D11241FBE60
:1000C000CFEFD8E0DEBFCDBF23E0ACE2B2E001C0AD
:1000D0001D92AB32B207E1F712E0A0E0B1E0EAE333
:1000E000F9E202C005900D92AC32B107D9F710E0E9
:1000F000CDE5D0E004C02197FE010E94C40FCC35AD
:10010000D107C9F70E94520A0C9490140C94000075
:1001100090E0FC01EC55FF4F249180579F4FFC016C
:100120008491882399F090E0880F991FFC01EA5789
:10013000FF4FA591B491FC01E458FF4F8591949134
:100140008FB7F894EC91E22BEC938FBF089508954C
:10015000DB0114964D915C9115976D917C91DC01BA
:10016000ED91FC910280F381E02D0994AF92BF9252
:10017000CF92DF92EF92FF920F931F93CF93DF9373
:100180006C017B018B01040F151FEB015E01AE18A2
:10019000BF08C017D10759F06991D601ED91FC91C4
:1001A0000190F081E02DC6010995892B79F7C501F1
:1001B000DF91CF911F910F91FF90EF90DF90CF9043
:1001C000BF90AF900895FC01538D448D252F30E0F2
:1001D000842F90E0821B930B541710F0CF96089554
:1001E00001970895FC01918D828D981761F0A28D81
:1001F000AE0FBF2FB11D5D968C91928D9F5F9F7347
:10020000928F90E008958FEF9FEF0895FC01918DFC
:10021000828D981731F0828DE80FF11D858D90E069
:1002200008958FEF9FEF0895FC01918D228D892F06
:1002300090E0805C9F4F821B91098F7399270895EE
:1002400089E392E00E94140121E0892B09F420E067
:10025000822F0895FC01A48DA80FB92FB11DA35AB8
:10026000BF4F2C91848D90E001968F739927848FD6
:10027000A689B7892C93A089B1898C9183708064F9
:100280008C93938D848D981306C00288F389E02D9A
:1002900080818F7D80830895EF92FF920F931F934B
:1002A000CF93DF93EC0181E0888F9B8D8C8D981329
:1002B0001AC0E889F989808185FF15C09FB7F89435
:1002C000EE89FF896083E889F98980818370806481
:1002D00080839FBF81E090E0DF91CF911F910F91CC
:1002E000FF90EF900895F62E0B8D10E00F5F1F4FDB
:1002F0000F731127E02E8C8D8E110CC00FB607FCEA
:10030000FACFE889F989808185FFF5CFCE010E9477
:100310002A01F1CFEB8DEC0FFD2FF11DE35AFF4FBA
:10032000F0829FB7F8940B8FEA89FB898081806205
:10033000CFCFCF93DF93EC01888D8823B9F0AA89C2
:10034000BB89E889F9898C9185FD03C0808186FD90
:100350000DC00FB607FCF7CF8C9185FFF2CF8081DF
:1003600085FFEDCFCE010E942A01E9CFDF91CF9129
:10037000089590E0FC01E859FF4F2491FC01EC55F1
:10038000FF4F3491FC01E057FF4FE491EE23C9F099
:10039000222339F0233001F1A8F4213019F1223061
:1003A00029F1F0E0EE0FFF1FE458FF4FA591B49143
:1003B0008FB7F894EC91611126C030953E233C93A1
:1003C0008FBF08952730A9F02830C9F0243049F7AD
:1003D000809180008F7D03C0809180008F77809313
:1003E0008000DFCF84B58F7784BDDBCF84B58F7D70
:1003F000FBCF8091B0008F778093B000D2CF8091F7
:10040000B0008F7DF9CF3E2BDACF3FB7F8948091C3
:10041000310290913202A0913302B091340226B59C
:10042000A89B05C02F3F19F00196A11DB11D3FBF2C
:10043000BA2FA92F982F8827BC01CD01620F711DFB
:10044000811D911D42E0660F771F881F991F4A95F5
:10045000D1F708952FB7F89460912D0270912E0274
:1004600080912F02909130022FBF089590E080E09C
:100470000895CF93DF93EC0160E08E810E94B90173
:1004800061E08E810E94B90160E08E810E94B90115
:100490008BE891E00197F1F7DF91CF910895CF922A
:1004A000DF92EF92FF920F931F93CF93DF936C0134
:1004B0007C0187E0E80EF11CD0E0C0E0062F10E0E0
:1004C000B8010C2E02C0759567950A94E2F7617029
:1004D000F70181917F010E94B9012196C430D105B5
:1004E00079F7C601DF91CF911F910F91FF90EF90A7
:1004F000DF90CF900C943902CF92DF92EF92FF926F
:100500000F931F93CF93DF93EC01F62E642F8C8112
:100510000E94B9018D818F3F19F060E00E94B901FE
:100520000F2D10E08F8584FF25C06E0187E0C80E77
:10053000D11CF12CE12CB8010E2C02C075956795E9
:100540000A94E2F76170F60181916F010E94B9018E
:10055000FFEFEF1AFF0A88E0E816F10461F7CE0119
:10056000DF91CF911F910F91FF90EF90DF90CF908F
:100570000C943902B80184E0759567958A95E1F786
:10058000CE010E944F026F2DCE01DF91CF911F91BE
:100590000F91FF90EF90DF90CF900C944F0240E0CE
:1005A000682F86EE92E00C947C0281E00E94CF02DC
:1005B0008BE39FE10197F1F70895CF93DF938230AA
:1005C00029F49091F50298609093F5028093F902D6
:1005D0001092FA0280E48093FB0280E18093FC0297
:1005E00080E58093FD028091EA020E94880080915C
:1005F000EB028F3F11F00E9488008091EC020E9474
:100600008800C6EED2E09E01265E32408091F5025F
:1006100084FD0AC084E090E02196281739073CF455
:100620008E810E948800EFCF88E090E0F5CF8BE3C9
:100630009DE00197F1F760E08091EA020E94B90124
:1006400060E08091EC020E94B9018091EB028F3F43
:1006500019F060E00E94B9018091F50284FD34C078
:1006600063E086EE92E00E944F02CBE4D6E4CE0136
:100670000197F1F763E086EE92E00E944F02219726
:10068000F1F763E086EE92E00E944F0283E592E08C
:100690000197F1F762E086EE92E00E944F028091AE
:1006A000F50280620E94CF0284E08093F6028CE023
:1006B0000E94CF020E94D50282E08093F70286E07A
:1006C000DF91CF910C94CF0280620E94CF028BE425
:1006D00096E40197F1F78091F50280620E94CF02C3
:1006E00083E592E00197F1F78091F50280620E9424
:1006F000CF02D5CF41E00E947C0281E090E00895D6
:10070000FC0124813581232B39F421E0FB01808118
:10071000882349F020E007C0808191810E94B511B3
:1007200021E0892BB9F7822F0895CF93DF93EC0155
:1007300088819981009711F00E94661019821882B1
:100740001D821C821B821A82DF91CF910895FC01C9
:1007500080819181009711F00C9466100895CF93D9
:10076000DF93DC011496ED91FC916E177F0710F575
:100770009F01261B370B4217530708F49A01DB0130
:10078000EC0188819981E21BF30BFD83EC83AF01BF
:10079000461B570B260F371FBC01620F731F8A0FB2
:1007A0009B1F0E94D311E881F9818C819D81E80F04
:1007B000F91F1082DF91CF9108950F931F93CF936C
:1007C000DF93EC0188819981009759F02A813B8160
:1007D0002617370730F081E0DF91CF911F910F91FD
:1007E00008958B016F5F7F4F0E94EF10009759F0C3
:1007F000998388831B830A832C813D81232B59F79E
:10080000FC011082E8CF80E0E7CFEF92FF920F93D8
:100810001F93CF93DF936115710541F480E0DF9161
:10082000CF911F910F91FF90EF90089541155105C1
:10083000B1F07B01EC010C811D81040F151FB80183
:100840000E94DD03882351F3288139818C819D81A9
:10085000B701820F931F0E94BE111D830C8381E09C
:10086000DECFCF93DF93EC01FB0101900020E9F78D
:100870003197AF01461B570B0E940504811103C03D
:10088000CE010E949503CE01DF91CF910895CF93C1
:10089000DF93EC01FB0144815581608171810E94ED
:1008A0000504811103C0CE010E949503CE01DF91A2
:1008B000CF910895CF93DF9300D0CDB7DEB7698392
:1008C0001A8241E050E0BE016F5F7F4F0E94050435
:1008D0000F900F90DF91CF910895EF92FF920F93B9
:1008E0001F93CF93DF93EC017B018A01BA010E9431
:1008F000DD0381110BC0CE010E949503CE01DF9173
:10090000CF911F910F91FF90EF9008951D830C835D
:10091000B701888199810E94BE11F0CFFB0101903F
:100920000020E9F73197AF01461B570B0C946D047B
:100930000F931F93CF93DF93CDB7DEB762970FB6B8
:10094000F894DEBF0FBECDBF8C01CB01F801118240
:10095000108213821282158214824AE0BE016F5FF8
:100960007F4F0E94090FBE016F5F7F4FC8010E9439
:100970008E0462960FB6F894DEBF0FBECDBFDF9136
:10098000CF911F910F910895CF93DF93EC01FB015D
:100990008617970749F0608171816115710541F0F3
:1009A000448155810E946D04CE01DF91CF9108955D
:1009B0000E949503F9CFFC011182108213821282EA
:1009C000158214820C94C404CF93DF93EC010E942F
:1009D000DB04CE01DF91CF9108950F931F93CF9346
:1009E000DF9300D000D000D0CDB7DEB78C016DE032
:1009F00073E0CE0101960E94DB042D813E81F80157
:100A00008481958128173907D1F489819A81608181
:100A10007181009741F16115710511F5232B31F1B9
:100A2000FC01808190E008C0232B01F1FB01808153
:100A300090E091958195910911E0892B09F010E0E2
:100A4000CE0101960E94A703812F26960FB6F89437
:100A5000DEBF0FBECDBFDF91CF911F910F910895E3
:100A60000E94B511E9CF61157105F1F611E0E8CFEB
:100A70000F931F93CF93DF9300D000D000D0CDB75A
:100A8000DEB78C0169E173E0CE0101960E94DB04C0
:100A9000B801CE0101960E94470468E271E00E940D
:100AA0003104BC0189E193E00E94C404CE010196A7
:100AB0000E94A70326960FB6F894DEBF0FBECDBFE7
:100AC000DF91CF911F910F910895FC011182108247
:100AD0001382128215821482FB0101900020E9F733
:100AE0003197AF01461B570B0C946D040F931F9366
:100AF000CF93DF9300D000D000D0CDB7DEB78C010C
:100B00006AE271E00E948003882359F060E089E086
:100B10000E94B90160E087E00E94B90160E088E0CE
:100B200017C06EE271E0C8010E9480038823E9F0DB
:100B30006AE271E0CE0101960E946505CE01019640
:100B40000E947605CE0101960E94A70361E089E02C
:100B50000E94B90126960FB6F894DEBF0FBECDBF36
:100B6000DF91CF911F910F91089564E371E0C80167
:100B70000E948003882381F06AE271E0CE01019631
:100B80000E946505CE0101960E947605CE01019670
:100B90000E94A70361E0C3CF6BE371E0C8010E942C
:100BA00080038823B9F26AE271E0CE0101960E94C7
:100BB0006505CE0101960E947605CE0101960E9440
:100BC000A70361E087E0C4CF4F925F926F927F925C
:100BD0008F929F92AF92BF92CF92DF92EF92FF924D
:100BE0000F931F93CF93DF93CDB7DEB72C970FB63C
:100BF000F894DEBF0FBECDBF8C016FE371E0CE0174
:100C000007960E9465054B855C85F8018481958176
:100C10008417950708F4CFC080819181009709F46B
:100C2000CAC06F8178856115710509F4C4C00E943E
:100C3000C511892B09F0BFC06FE371E0CE010196A9
:100C40000E946505F801248135814D815E8124175C
:100C5000350798F080819181009779F069817A81D8
:100C60006115710551F0241B350B820F931F0E94F3
:100C7000B511FF24F394892B09F0F12CCE010196D4
:100C80000E94A703CE0107960E94A703FF2089F0C8
:100C900041E050E070E060E0C8010E94AF03F8015D
:100CA00064817581615071094FEF5FEFC8010E9447
:100CB000AF03F80164807580D12CC12C2301F1E0D1
:100CC0004F1A5108C614D7040CF07CC046017601B7
:100CD0008FE0E80EF11CE614F7040CF07201EFEF60
:100CE000EE1AFE0AEC14FD0410F44701760161E5EA
:100CF00071E0CE0101960E946505F801A480B580DF
:100D00008A149B04E8F4EA14FB0408F45701F80180
:100D100060817181FB01EA0DFB1DF0801082680D7E
:100D2000791DCE0101966115710509F446C00E9436
:100D30008E04F80180819181A80EB91EF501F08220
:100D400061E08CE00E94B9010E94D502E1E080914F
:100D5000F9028111E0E0E195F0E0EA51FD4F84896C
:100D600080680E94CF0266ED72E086EE92E00E94FB
:100D7000A800E091F902E23018F5E150F0E0EA5104
:100D8000FD4F848980680E94CF02BE016F5F7F4F54
:100D900086EE92E00E94A800BE016F5F7F4F86ED55
:100DA00092E00E94C404CE0101960E94A703F0E1E4
:100DB000CF0ED11C87CFF12C65CF0E949503B9CF00
:100DC000E1E0DCCF2C960FB6F894DEBF0FBECDBFAE
:100DD000DF91CF911F910F91FF90EF90DF90CF9017
:100DE000BF90AF909F908F907F906F905F904F904B
:100DF00008950F931F93CF93DF93CDB7DEB762971C
:100E00000FB6F894DEBF0FBECDBF00913502109132
:100E10003602101611065CF161E471E0CE01019614
:100E20000E946505CE0101960E94E405CE0101965F
:100E30000E94A70360E571E0CE0101960E9465055E
:100E4000CE0101960E94E405CE0101960E94A703FF
:100E5000109236021092350262960FB6F894DEBFF9
:100E60000FBECDBFDF91CF911F910F91089562E525
:100E700071E08CED92E00E9480030130110509F0D1
:100E800055C0882349F0809100019091010101969D
:100E9000909301018093000168E571E08CED92E090
:100EA0000E948003882349F0809100019091010104
:100EB000019790930101809300016DE571E0CE01EF
:100EC00001960E946505CE0101960E94E405CE01BF
:100ED00001960E94A7036091000170910101CE016B
:100EE00001960E949804BE016F5F7F4FCE01079666
:100EF0000E94DB046CE671E0CE0107960E9431048B
:100F0000BC01CE010D960E94DB04CE010D960E941D
:100F1000E405CE010D960E94A703CE0107960E941C
:100F2000A703CE0101960E94A70396CF02301105B8
:100F3000E1F5882349F08091020190910301019627
:100F4000909303018093020168E571E08CED92E0DB
:100F50000E948003882349F080910201909103014F
:100F6000019790930301809302016EE671E0CE0138
:100F700001960E946505CE0101960E94E405CE010E
:100F800001960E94A7036091020170910301CE01B6
:100F900001960E949804BE016F5F7F4FCE010796B5
:100FA0000E94DB046BE771E0A7CF882349F08091B2
:100FB0003702909138020596909338028093370259
:100FC00068E571E08CED92E00E948003882349F08F
:100FD0008091370290913802059790933802809360
:100FE00037026DE771E0CE0101960E946505CE01E2
:100FF00001960E94E405CE0101960E94A70360912C
:10100000370270913802CE0101960E949804BE0109
:101010006F5F7F4FCE0107960E94DB046DE871E0A1
:10102000CE0107960E943104BC01CE010D960E94AC
:10103000DB04CE010D960E94E405CE010D960E94C0
:10104000A703CE0107960E94A703CE0101960E9436
:10105000A70383E090E09093360280933502FCCEA4
:10106000CF92DF92EF92FF92CF93C1E089E392E0BB
:101070000E941401892B09F4DAC080910803909131
:101080000903892B09F047C00E942A0260931F03BD
:1010900070932003809321039093220361E571E014
:1010A0008DE093E00E948E0489E392E00E94F200BA
:1010B000682F80910803909109039C012F5F3F4F97
:1010C00030930903209308038330910508F0A9C0E9
:1010D00041E0663609F440E02430310511F465360C
:1010E00019F4442309F44EC0109209031092080326
:1010F00010920B0310920A0361E571E08DE093E01A
:101100000E948E0461E571E083E193E00E948E0409
:1011100010920C03ABCFC0901F03D0902003E0903F
:101120002103F09022038CE2C80E81E0D81EE11C5E
:10113000F11C0E942A02C616D706E806F90608F036
:10114000B3CF61E571E083E193E00E948E041092D9
:1011500009031092080310920B0310920A0361E531
:1011600071E08DE093E00E948E0410920C030E94C7
:101170002A0260931F0370932003809321039093AE
:10118000220392CF0497029720F510920C0383E17B
:1011900093E00E945A0480910803909109030697F6
:1011A00009F064CF40E150E070E060E0809113030B
:1011B000909114030E94E90D6A5F7F4F70930B03B7
:1011C00060930A0361E571E083E193E00E948E047D
:1011D0004DCF2730310508F449CF80910A03909113
:1011E0000B032817390738F410920C038DE093E0B5
:1011F0000E945A043BCF9093090380930803892BE4
:1012000009F434CF8DE093E00E945A041092090350
:101210001092080310920B0310920A03C0930C0360
:1012200025CF2430310509F0ADCF40E058CFCF9124
:10123000FF90EF90DF90CF9008950E9420018111E0
:101240000C94300808951F920F920FB60F9211243C
:101250002F933F934F935F936F937F938F939F93BE
:10126000AF93BF93EF93FF9389E392E00E942A012B
:10127000FF91EF91BF91AF919F918F917F916F916E
:101280005F914F913F912F910F900FBE0F901F9044
:1012900018951F920F920FB60F9211242F938F93D0
:1012A0009F93EF93FF93E0914902F0914A0280816E
:1012B000E0914F02F091500282FD1BC0908180911D
:1012C00052028F5F8F7320915302821741F0E09199
:1012D0005202F0E0E75CFD4F958F80935202FF9140
:1012E000EF919F918F912F910F900FBE0F901F90B4
:1012F00018958081F4CF1F920F920FB60F92112490
:101300002F933F938F939F93AF93BF9380912D0221
:1013100090912E02A0912F02B091300230912C02B8
:1013200023E0230F2D3758F50196A11DB11D209301
:101330002C0280932D0290932E02A0932F02B09343
:1013400030028091310290913202A0913302B0912B
:1013500034020196A11DB11D809331029093320297
:10136000A0933302B0933402BF91AF919F918F91BC
:101370003F912F910F900FBE0F901F90189526E868
:10138000230F0296A11DB11DD2CFCF93DF93E9E3C6
:10139000F2E01382128288EE93E0A0E0B0E0848352
:1013A0009583A683B7838EE091E09183808385EC5B
:1013B00090E09587848784EC90E09787868780EC1F
:1013C00090E0918B808B81EC90E0938B828B82EC10
:1013D00090E0958B848B86EC90E0978B868B118EBA
:1013E000128E138E148ECEEFD2E01E821D8286E006
:1013F00090E00E94CA0FFC011182108213821282B7
:10140000158214829A8389839C838B8384EE94E073
:101410009987888761E571E08DE093E00E9465051A
:1014200061E571E083E193E00E94650561E571E0AB
:1014300089E193E00E946505E6EEF2E013821282F4
:1014400080E291E0918380838BE084838FEF8583BA
:101450008AE0868385E0878384E0808783E08187D4
:1014600082E082871386148615861686178681E0A9
:101470000E94DD020E942A026093E2027093E3025E
:101480008093E4029093E50261E571E08CED92E0D7
:101490000E94650561E571E086ED92E0DF91CF91F4
:1014A0000C946505CF93DF93CDB7DEB765970FB684
:1014B000F894DEBF0FBECDBF789484B5826084BD42
:1014C00084B5816084BD85B5826085BD85B5816048
:1014D00085BD80916E00816080936E0010928100C6
:1014E0008091810082608093810080918100816081
:1014F0008093810080918000816080938000809142
:10150000B10084608093B1008091B00081608093CD
:10151000B00080917A00846080937A0080917A0094
:10152000826080937A0080917A00816080937A0053
:1015300080917A00806880937A001092C10087E0E1
:101540000E94880089E00E94880088E00E9488004C
:101550008CE00E94880061E08CE00E94B90182E08A
:101560000E94DD020E94F9066FEF70E08DE093E0CB
:101570000E94DD0361E571E083E193E00E948E0447
:1015800061E571E08DE093E00E948E0461E571E019
:1015900089E193E00E948E0410920C0310920B03D9
:1015A00010920A03109209031092080310921F036D
:1015B000109220031092210310922203E09149021D
:1015C000F0914A0282E08083E0914502F091460268
:1015D0001082E0914702F09148028FEC80831092D4
:1015E0005102E0914D02F0914E0286E08083E0913D
:1015F0004B02F0914C02808180618083E0914B022C
:10160000F0914C02808188608083E0914B02F091E0
:101610004C02808180688083E0914B02F0914C0203
:1016200080818F7D808390E4D92E29EFE22E21E006
:10163000F22E33E0C32E8E010D5E1F4FD0927C0040
:1016400080917A00806480937A0080917A0086FD90
:10165000FCCF90917800809179008927982789277D
:1016600062E571E082339105C4F060E971E086398A
:1016700091059CF063E971E08E3521E092076CF0F2
:1016800068E571E0863222E092073CF068E971E09B
:101690008E3E924014F06FE971E0CE0101960E94F7
:1016A00065058091DC029091DD02009709F47BC111
:1016B00069817A816115710509F473C14091DE0277
:1016C0005091DF022D813E814217530708F469C112
:1016D0000E94BE118D819E819093E1028093E00271
:1016E0001E821D82CE0101960E94A7036FE971E060
:1016F0008CED92E00E948003B82E0E942A02AB017A
:10170000BC018091E2029091E302A091E402B091C9
:10171000E5028C509E4FAF4FBF4F84179507A60729
:10172000B707D8F4B11019C00E942A026093E202F0
:101730007093E3028093E4029093E50268E971E01C
:101740008CED92E00E948003882309F443C110923B
:101750003602109235020E94F9060E9405022B0102
:101760003C0182E3882E912CA12CB12C0E94050211
:101770006419750986099709683E734081059105CA
:10178000A8F381E0881A9108A108B10898EE490EE3
:1017900093E0591E611C711C81149104A104B104D1
:1017A00029F780910C0310920C03882309F4F1C0EF
:1017B0006DE073E0CE0101960E94DB0464EA71E003
:1017C000CE0101960E948003B82ECE0101960E94A0
:1017D000A703BB2009F41FC160EB71E0CE010196A5
:1017E0000E946505CE0101960E943805CE01019642
:1017F0000E94A7036091020170910301CE01079638
:101800000E94980463ED71E0CE010D960E9465057B
:10181000BE01695F7F4FCE010D960E94470461EDC6
:1018200071E00E943104BC01CE0101960E94DB04EC
:10183000CE0101960E943805CE0101960E94A703B1
:10184000CE010D960E94A703CE0107960E94A70322
:101850006091000170910101CE0107960E949804E9
:101860006DED71E0CE010D960E946505BE01695FC8
:101870007F4FCE010D960E94470461ED71E00E94FA
:101880003104BC01CE0101960E94DB04CE01019619
:101890000E943805CE0101960E94A703CE010D9645
:1018A0000E94A703CE0107960E94A703609137020A
:1018B00070913802CE0107960E9498046AEE71E09A
:1018C000CE010D960E946505BE01695F7F4FCE0176
:1018D0000D960E94470461ED71E00E943104BC0145
:1018E000CE0101960E94DB04CE0101960E943805CC
:1018F000CE0101960E94A703CE010D960E94A70378
:10190000CE0107960E94A70369E173E0CE010D9610
:101910000E94DB048A898F9389898F93FF92EF92CB
:101920001F92CF921F930F930E94E211B801CE0134
:1019300007960E9465056EEF71E0CE0101960E9448
:101940006505BE01695F7F4FCE0101960E94470485
:10195000BE01635F7F4F0E944704BC0189E392E0B0
:101960000E94A800CE0101960E94A703CE0107960F
:101970000E94A703CE010D960E94A70361E571E0C6
:1019800089E193E00E948E040FB6F894DEBF0FBE8B
:10199000CDBF0E942001882309F450CE0E94300858
:1019A0004DCE0E94661089819A819093DD028093CA
:1019B000DC028B819C819093DF028093DE028D811B
:1019C0009E819093E1028093E0021A8219821C8228
:1019D0001B8286CE63E971E08CED92E00E94800369
:1019E000882351F0809135029091360201969093B0
:1019F000360280933502AFCE60E971E08CED92E063
:101A00000E948003882309F4A6CE8091350290912C
:101A100036020197ECCF63E072E0CE0101960E949E
:101A20006505CE0101960E94ED04B82ECE01019607
:101A30000E94A7036BE371E0B11039C06CE072E063
:101A4000CE0101960E946505CE0101960E94ED042B
:101A5000B82ECE0101960E94A70364E371E0B11095
:101A600026C068E172E0CE0101960E946505CE01B4
:101A700001960E94ED04B82ECE0101960E94A703A4
:101A80006EE271E0B11013C063E272E0CE01019624
:101A90000E946505CE0101960E94ED04B82ECE018C
:101AA00001960E94A703BB2079F06AE271E0CE01A3
:101AB00001960E946505CE0101960E947605CE0131
:101AC00001960E94A70365CF6DE073E0CE010796F3
:101AD0000E94DB0461E571E086ED92E00E948E04D5
:101AE0000E94D502BE01695F7F4FCE0101960E9420
:101AF000DB04CE0101960E94E405CE0101960E940E
:101B0000A703CE010796DDCFCF93DF9386ED92E05A
:101B10000E94A7038CED92E00E94A70389E193E065
:101B20000E94A70383E193E00E94A7038DE093E066
:101B30000E94A703E091FF02F0910003809103034C
:101B400090910403892B71F10280F381E02DF093D1
:101B50000003E093FF020190F081E02DC481D58164
:101B6000209731F0CE010E94A703CE010E9466109B
:101B7000E091FF02F091000380819181009711F0C4
:101B80000E946610E091FF02F09100031182108222
:101B90008091030390910403019790930403809331
:101BA0000303C8CFC481D581209731F0CE010E94B4
:101BB000A703CE010E9466108091FF02909100035E
:101BC000009721F0DF91CF910C946610DF91CF91B7
:101BD0000895B0E0A0E0EFEEFDE00C947F0F5C0113
:101BE0006B017A016115710519F0FB019183808306
:101BF000E114F10451F0C7010297839730F040E0FF
:101C000030E020E090E072C05E01E5012196F50130
:101C10001081812F90E00E94000F892BA9F71D32BF
:101C200001F52196F501118101E0E114F10409F4B7
:101C3000DAC0F0E1EF16F10409F082C0103359F474
:101C400088818F7D883509F076C0198122960260DF
:101C5000F0E1EF2EF12C812C912CA12C88E0B82EF4
:101C60008CC01B3221F4E5012296F501118100E0C0
:101C7000DCCFEAE0EE16F10409F4BBC0F0E1EF16A8
:101C8000F10409F06DC0E7CF78E0E72EF12C812C4C
:101C9000912CA12C60E1B62E70C03FE9310F3A3192
:101CA00028F439EA332E80C021E09AC0302F3170F9
:101CB000C114D10431F0222309F12197F601D18317
:101CC000C08327FF21C060E070E080E090E8311120
:101CD00004C06FEF7FEF8FEF9FE722E230E0309399
:101CE000260320932503462F372F282F642F732F89
:101CF000822FCDB7DEB7E1E10C949B0F01FF04C04A
:101D00002297F601D183C083332341F090958095CB
:101D1000709561957F4F8F4F9F4FE5CF97FFE3CF32
:101D200082E290E090932603809325036FEF7FEF8C
:101D30008FEF9FE7D8CF10E3E114F10409F4A4CFAB
:101D400028E0E216F10409F4A2CF0CF092CF812C26
:101D5000912CA12CE0E4BE2E82E0E816F10469F09B
:101D600060E070E080E090E897010F2C000C440BDD
:101D7000550B0E94510F49015A0120E060E070E0CC
:101D8000CB0127010F2C000C66087708FE0150EDEF
:101D9000352E310E39E0331540F43FEB310F3A3137
:101DA00008F07BCF49EC342E310E3E141F040CF0AA
:101DB0007DCF27FD15C086169706A806B90678F0D0
:101DC000A30192010E94410F630D711D811D911DA0
:101DD00061307105810520E8920708F465CF2FEF87
:101DE00021961081D3CF103309F42ACF2AE0E22EB6
:101DF000F12C9CEC892E982CA82C9CE0B92EBDCF00
:101E000091110C942E0F803219F089508550C8F72B
:101E10000895BB274A3031F4992322F4BDE290950E
:101E200081959F4F0C94150FBB27FB015527AA27BF
:101E3000880F991FAA1FA41710F0A41B8395505157
:101E4000B9F7A05DAA3308F0A95DA193009779F7CF
:101E5000B111B1931192CB010C94310F99278827BE
:101E60000895DC01FC01672F71917723E1F7329728
:101E700004C07C916D9370836291AE17BF07C8F365
:101E80000895DB018F939F930E94730FBF91AF91D1
:101E9000A29F800D911DA39F900DB29F900D1124C4
:101EA0000895A1E21A2EAA1BBB1BFD010DC0AA1F9B
:101EB000BB1FEE1FFF1FA217B307E407F50720F0B3
:101EC000A21BB30BE40BF50B661F771F881F991F2E
:101ED0001A9469F760957095809590959B01AC0177
:101EE000BD01CF0108950E94B50FA59F900DB49F2D
:101EF000900DA49F800D911D112408952F923F9263
:101F00004F925F926F927F928F929F92AF92BF9209
:101F1000CF92DF92EF92FF920F931F93CF93DF93B5
:101F2000CDB7DEB7CA1BDB0B0FB6F894DEBF0FBE12
:101F3000CDBF09942A88398848885F846E847D845F
:101F40008C849B84AA84B984C884DF80EE80FD8061
:101F50000C811B81AA81B981CE0FD11D0FB6F894D7
:101F6000DEBF0FBECDBFED010895A29FB001B39FAC
:101F7000C001A39F700D811D1124911DB29F700D92
:101F8000811D1124911D0895EE0FFF1F0590F491FE
:101F9000E02D09940F931F93CF93DF938230910527
:101FA00010F482E090E0E0912903F0912A0330E000
:101FB00020E0B0E0A0E0309799F42115310509F454
:101FC0004AC0281B390B24303105D8F58A819B8102
:101FD0006115710589F1FB0193838283FE0111C0B4
:101FE000408151810281138148175907E0F0481759
:101FF000590799F4109761F012960C931297139663
:102000001C933296CF01DF91CF911F910F910895CC
:102010000093290310932A03F4CF2115310551F0C1
:102020004217530738F0A901DB019A01BD01DF0116
:10203000F801C1CFEF01F9CF90932A0380932903D0
:10204000CDCFFE01E20FF31F81939193225031090E
:1020500039832883D7CF2091270330912803232B5E
:1020600041F4209106013091070130932803209319
:10207000270320910401309105012115310541F418
:102080002DB73EB74091080150910901241B350B33
:10209000E0912703F0912803E217F307A0F42E1B29
:1020A0003F0B2817390778F0AC014E5F5F4F2417BC
:1020B000350748F04E0F5F1F5093280340932703C6
:1020C000819391939FCFF0E0E0E09CCFCF93DF939B
:1020D0000097E9F0FC01329713821282A091290344
:1020E000B0912A03ED0130E020E01097A1F42081A7
:1020F0003181820F931F20912703309128032817E5
:10210000390709F061C0F0932803E0932703DF91BA
:10211000CF910895EA01CE17DF07E8F54A815B8188
:102120009E0141155105B1F7E901FB83EA8349910D
:102130005991C40FD51FEC17FD0761F4808191817F
:102140000296840F951FE901998388838281938188
:102150009B838A83F0E0E0E012968D919C91139727
:102160000097B9F52D913C911197CD010296820F00
:10217000931F20912703309128032817390739F638
:10218000309751F510922A0310922903B093280337
:10219000A0932703BCCFD383C28340815181840F96
:1021A000951FC817D90761F44E5F5F4F88819981E9
:1021B000480F591F518340838A819B819383828377
:1021C0002115310509F0B0CFF0932A03E0932903DC
:1021D0009ECFFD01DC01C0CF13821282D7CFB0E0C9
:1021E000A0E0E5EFF0E10C94800F8C01009751F432
:1021F000CB010E94CA0F8C01C801CDB7DEB7E0E168
:102200000C949C0FFC01E60FF71F9C012250310932
:10221000E217F30708F49DC0D901CD91DC91119725
:10222000C617D70798F0C530D10530F3CE01049713
:102230008617970708F3C61BD70B2297C193D19334
:102240006D937C93CF010E946610D6CF5B01AC1AD0
:10225000BD0A4C018C0E9D1EA0912903B0912A034A
:10226000512C412CF12CE12C109731F58091270352
:10227000909128038815990509F05CC04616570609
:1022800008F058C08091040190910501009741F435
:102290008DB79EB74091080150910901841B950BA1
:1022A000E817F90708F055C0F0932803E0932703D7
:1022B000F90171836083A0CF8D919C911197129643
:1022C0006C90129713967C901397A815B90559F541
:1022D0006C0142E0C40ED11CCA14DB0420F1AC0135
:1022E0004A195B09DA011296159780F062827382AF
:1022F00051834083D9016D937C93E114F10471F013
:10230000D7011396FC93EE93129776CF22968C0FFB
:102310009D1FF90191838083F301EFCFF0932A038E
:10232000E093290369CF4816590608F42C017D0172
:10233000D3019ACFCB010E94CA0F7C01009749F0CC
:10234000AE01B8010E94AC11C8010E94661087015D
:1023500053CF10E000E050CFFB01DC0102C0019040
:102360000D9241505040D8F70895FB01DC018D914A
:10237000019080190110D9F3990B0895FB01DC013C
:1023800001900D920020E1F70895FB01DC0141501E
:10239000504030F08D910190801919F40020B9F768
:1023A000881B990B0895FB01DC014150504048F017
:1023B00001900D920020C9F701C01D92415050407C
:1023C000E0F70895AEE0B0E0E8EEF1E10C948C0F98
:1023D0000D891E898F89988D26E02C831A830983A5
:1023E00097FF02C080E090E801979E838D83AE0145
:1023F000455E5F4F698D7A8DCE0101960E94121263
:102400004D815E8157FD0AC02F81388542175307E1
:102410000CF49A01020F131FF80110822E96E4E0CB
:102420000C94A80FABE0B0E0E8E1F2E10C947E0F71
:102430007C013B018A01FC0117821682838181FFA6
:10244000C8C1CE0101965C01F7019381F30193FDB0
:10245000859193FF81913F01882309F453C185320F
:1024600039F493FD859193FF81913F01853229F4E1
:10247000B70190E00E940214E7CF912C212C312C5F
:10248000FFE1F31538F08B3211F190F4803209F14D
:10249000833229F137FC3CC020ED280F2A3050F55B
:1024A00036FE20C08AE0989E200D1124922E06C090
:1024B0008D3291F0803371F7689430F8F30193FD19
:1024C000859193FF81913F018111DACF21C06894FA
:1024D00031F8689432F8F2CF689433F8EFCF68940B
:1024E00034F8ECCFEAE02E9E200D1124222E6894C1
:1024F00035F8E4CF8E3229F436FC04C1689436F8FE
:10250000DDCF8C3619F4689437F8D8CF8836B1F21D
:10251000982F9F7D95549330E0F08336A1F1833757
:10252000C1F1833509F063C02801F2E04F0E511C60
:10253000F801C080D180692D70E036FC02C06FEFD9
:102540007FEFC6010E94EC134C01689437F88201BA
:102550000AC00C5F1F4FFFE3F98388248394912CFA
:102560006501E89437F833FE2DC0522C8114910494
:1025700071F5552009F468CFB70180E290E00E9420
:1025800002145A94F6CFF801808189830E5F1F4FA1
:10259000E4CF2801F2E04F0E511CF801C080D18039
:1025A000692D70E036FC02C06FEF7FEFC6010E941C
:1025B000F7134C018201D5CFB70180E290E00E9471
:1025C00002142A942814190409F0B0F7CECFF601AA
:1025D00037FC859137FE81916F01B70190E00E9431
:1025E000021451105A94F1E08F1A9108BFCF84362B
:1025F00019F0893609F077C0F80137FE6BC06081A9
:102600007181828193810C5F1F4FF32DFF763F2EE6
:1026100097FF09C090958095709561957F4F8F4F7A
:102620009F4F689437F82AE030E0A5010E943214E9
:10263000C82ECA188C2C432C36FE0CC0E89440F8E7
:10264000C91440F434FE05C032FC03C0F32DFE7EF5
:102650004F2E892C44FE95C0FE01EC0DF11D8081AA
:10266000803309F087C0242D297E422E842D887066
:10267000582E43FC95C040FE8FC09C2C821418F449
:102680002C0C922C981844FE91C0B70180E390E086
:102690000E94021442FE09C088E790E041FE02C099
:1026A00088E590E0B7010E940214C91408F48AC0BA
:1026B000CA94D12C9FEFC91AD90ACA0CDB1CF601A7
:1026C00082916F01B70190E00E940214AC14BD0426
:1026D000B1F74FCF60817181072E000C880B990BE9
:1026E0000E5F1F4F92CFD32CE894D4F82AE030E04D
:1026F000853739F1232D297FD22E8F3601F148F409
:102700008835A9F0F701868197812B96E2E10C9438
:102710009A0F803749F08837A9F7D4FE02C0689431
:10272000D2F820E130E00DC06894D4F8F6CF34FE42
:1027300003C0822F8660D82E20E132E002C028E05C
:1027400030E0F801D7FE0FC06081718182819381F2
:102750000C5F1F4FA5010E943214C82ECA183D2CD1
:10276000E89437F867CF6081718190E080E00E5F78
:102770001F4FF0CF42FC02C0839478CF83948394A0
:1027800075CF842D867809F471CFF6CFB70180E23A
:1027900090E00E94021483948214C0F3512C73CFF2
:1027A000522C5818821408F46ECFF8CF842D8678F6
:1027B00009F47BCF8BE241FE80E247FC8DE2B7015A
:1027C00090E071CFB70180E390E00E9402149A94E8
:1027D0006CCF8FEF9FEF99CFFC0105906150704057
:1027E0000110D8F7809590958E0F9F1F0895FC01DA
:1027F0006150704001900110D8F7809590958E0F30
:102800009F1F08950F931F93CF93DF93182F092FC6
:10281000EB018B8181FD09C01FEF0FEF812F902FFE
:10282000DF91CF911F910F91089582FF14C02E81E7
:102830003F818C819D81281739073CF4E881F9811B
:10284000CF0101969983888310838E819F810196A1
:102850009F838E83E3CFE885F985812F0995892BA6
:10286000A1F3DACFFA01AA27283051F1203181F102
:10287000E8946F936E7F6E5F7F4F8F4F9F4FAF4F88
:10288000B1E03ED0B4E03CD0670F781F891F9A1F9B
:10289000A11D680F791F8A1F911DA11D6A0F711D4F
:1028A000811D911DA11D20D009F468943F912AE05B
:1028B000269F11243019305D3193DEF6CF01089543
:1028C000462F4770405D4193B3E00FD0C9F7F6CF74
:1028D000462F4F70405D4A3318F0495D31FD40523C
:1028E000419302D0A9F7EACFB4E0A69597958795D2
:1028F00077956795BA95C9F70097610571050895B1
:102900009B01AC010A2E069457954795379527955C
:10291000BA95C9F7620F731F841F951FA01D0895F4
:1029200010E0CDE5D0E004C0FE010E94C40F219666
:0A293000CE35D107C9F7F894FFCFA8
:10293A001900320000002B038000000000004C0147
:10294A00B600E30099011401F2000601000000003C
:10295A007A03B6003602A7003B006F66660067720C
:10296A0065656E0079656C6C6F770072656400222C
:10297A0000536D61727420486F6D65202E2E2E00F3
:10298A0020007269676874006C6566740054656D2E
:10299A0070657261747572652E2E2E00630041692E
:1029AA00722048756D6964697479002500526169FD
:1029BA006E206C617374203234687273006D6D001E
:1029CA00757000646F776E0073656C656374006E72
:1029DA006F6E650067657450657263657074730025
:1029EA006465766963652861726475696E6F576993
:1029FA0074684C43444B6579706164536869656CCB
:102A0A0064290068756D6964697479280074656D54
:102A1A00706572617475726528007261696E4C61C5
:102A2A00737432346872732800253032580066662F
:102A3A00666500726564416C6572740079656C6CD8
:102A4A006F77416C65727400677265656E416C657B
:0C2A5A00727400616C6572744F66660057
:00000001FF
